:02000002B0004C
:1040000000400B00449C0B00000006000C00050261
:084010000401E50C00000000B2
:0440180070920B0097
:10401C0009480A49884208B505D0094A824202D0AB
:10402C00121A04F057FF0748074A0021121A04F02D
:10403C0079FF014808BD00BF10E60320A89B0B00C8
:10404C0084E6032084E60320EDE7032070B5074ED9
:10405C00074C01F0D5F9A41BA4080025AC4200D1F3
:10406C0070BD56F8043B98470135F7E7549B0B009D
:10407C007C9B0B0000F018B908B501F05BF9BDE8AA
:10408C00084001F075B900F0E1BC00F0DFBC00F0B5
:10409C00E5BC000008B5034A03490C2000F01AFCEB
:1040AC00FEE700BFA1480B0084920B000078B0FA29
:1040BC0080F0400970470123037070477047006A15
:1040CC000368DB68184700000A4B10B50446036010
:1040DC0001F038FB214601F082FD01F075F801F08A
:1040EC0067F82046044B40F8043B01F013FC2046D3
:1040FC0010BD00BF1C930B0004930B0010B50446BD
:10410C00FFF7E2FF20462421FFF7C1FF204610BD38
:10411C000EB400B58CB00DAA4FF0200C52F8041B55
:10412C000392CDE900120023016804AA1E20CDE9F8
:10413C0004C300F0DFFB0CB05DF804EB03B0704778
:10414C0070B5D0E900531426044606FB0356AE4264
:10415C0004D0284604F04EFC1435F8E7206800F033
:10416C007DFC204670BD8842F8B504460D461646C7
:10417C0016D9904215D2A2F11406751AA1F11407A2
:10418C002C44B7421CD02CB13146204604F0AEFC76
:10419C00337C2374304604F02DFC143E143CF0E7C1
:1041AC000ED0B5420CD02CB12946204604F09EFC12
:1041BC002B7C2374284604F01DFC14351434F0E7D2
:1041CC00F8BDF8B50E1E054613DD142707FB06F0E7
:1041DC0000F03CFC044658B1D5E9001207FB021272
:1041EC00FFF7C1FF286800F039FC2C60AE6001209D
:1041FC00F8BD0024F6E72DE9F0410023C0E90033B7
:10420C0083600D4649689942044617DDFFF7D9FFD4
:10421C00A0B1D5E900634FF01408276808FB0368C8
:10422C00B04509D02FB13146384604F079FC337CC7
:10423C003B7414361437F3E76B6863602046BDE8B3
:10424C00F08170B50E4686B04568044601A804F0AE
:10425C004DFC337C8DF81430D4E90113994210DAFB
:10426C0023686168142202FB053505F1140002FB7A
:10427C0001322946FFF777FF75B963680133636034
:10428C0005E001312046FFF79CFF0028E8D101A88A
:10429C0004F0B0FB06B070BD01A9284604F026FC62
:1042AC009DF814302B74E8E700B54FF4FA6099B020
:1042BC0001F0DEF800234A4902930FA8CDE9003340
:1042CC001E2504F0E2FB0FA968468DF84C50FFF751
:1042DC00B8FF0FA804F08EFB42490FA804F0D5FBE1
:1042EC0028240FA968468DF84C40FFF7AAFF0FA8A9
:1042FC0004F080FB3C490FA804F0C7FB0FA96846EB
:10430C008DF84C40FFF79DFF0FA804F073FB374965
:10431C000FA804F0BAFB0FA968468DF84C40FFF7C4
:10432C0090FF0FA804F066FB31490FA804F0ADFB19
:10433C000FA968468DF84C40FFF783FF0FA804F0D7
:10434C0059FB694603A8FFF756FF00F03DFF03A990
:10435C00044606A8FFF74FFF06A909A8FFF74BFF75
:10436C00244B0F9309A90CA8FFF745FF0CAA29466B
:10437C0010A801F017FD0CA8FFF7E2FE09A8FFF743
:10438C00DFFE1D4B0F9306A81794FFF7D9FE1B4BAE
:10439C000F9300F019FF4FF4165100F005FF01F0D8
:1043AC00D1F90FA901F0D4FB03A8FFF7C9FE144AF9
:1043BC0014491548154CFFF7ABFE15491248FFF789
:1043CC00A7FE14491048FFF7A3FE02F031FD02F0DE
:1043DC0079FD00F04FF8204600F0E2F8F9E700BF55
:1043EC0099920B009D920B00A1920B00A8920B00CE
:1043FC00AC920B0004930B007C950B001C930B00F0
:10440C00B3920B0088930B00F0E60320E8920B00AC
:10441C00BA920B00D1920B0010B5074B074A9A6069
:10442C000024C3E90044032000F0E4FA21460120F3
:10443C00BDE8104000F0EEBA84E603200000FFFF58
:10444C0070470EB400B58CB00DAA4FF0200C52F88A
:10445C00041B0392CDE900120023016804AA322048
:10446C00CDE904C300F046FA0CB05DF804EB03B0E0
:10447C00704700002DE9F04F46494748ADF67C6D7A
:10448C000A22FFF745FE02F0D3FC4FF47A7102F0DA
:10449C005FFD1AAC25466426A1467F27284602F00C
:1044AC00A4F905F1080003F0F9F805F1140003F084
:1044BC00F5F8013E85F8207005F12405EED102F0E7
:1044CC00B7FC6422214602F08DFDDFF8D0B0DFF896
:1044DC00C8A05FFA80F8F3B298454AD90025182293
:1044EC0029460DF131008DF8305004F01BFD1122DE
:1044FC0029460DF11D008DF81C5004F013FD1822F7
:10450C0029460DF14D008DF84C5004F00BFD04F1D3
:10451C00080103A802F0FCFA182203990CA804F075
:10452C007CFD03A804F066FA13AF04F1140103A890
:10453C0002F0EEFA03991822384604F06EFD03A837
:10454C0004F058FA21462A4603A802F0B5F903995B
:10455C00112207A804F061FD03A804F04BFA0097A0
:10456C000CAB07AA59465046FFF7D2FD013624344E
:10457C00B1E70DF6786454F8100C00F06FFA243C97
:10458C00A06800F06BFA4C45F5D10DF67C6DBDE8DA
:10459C00F08F00BF2C930B00F0E603205E930B0012
:1045AC001FB5014600220446684602F0F7F802F0F7
:1045BC003FFC6A460146012302A803F02BFF02A828
:1045CC0002F0A8FB2246E8B111491248FFF7A0FD02
:1045DC0000221149114803F0DAFB41F2883000F057
:1045EC0047FF02F025FC02A903F00FFA22460C4902
:1045FC000848FFF78DFD002402A802F062FD20465A
:10460C0004B010BD07490348FFF71BFF0124F3E773
:10461C008B930B00F0E603204D440B0090E6032037
:10462C00BA930B00E5930B0008B5044802F0E0FACE
:10463C00BDE80840024802F0DBBA00BF90E6032058
:10464C0098E6032008B5024B1B681B68019308BD54
:10465C004C02030008B5024B1B685B68019308BD54
:10466C004C02030008B5024B1B689B68019308BD04
:10467C004C02030008B5024B1B681B69019308BD73
:10468C004C02030008B5024B1B685B69019308BD23
:10469C004C02030008B5024B1B689B69019308BDD3
:1046AC004C02030008B5024B1B68DB69019308BD83
:1046BC004C02030008B5024B1B681B6A019308BD32
:1046CC004C02030008B5024B1B689B68019308BDA4
:1046DC003C02030008B5024B1B68DB68019308BD64
:1046EC003C02030008B5024B1B681B69019308BD13
:1046FC003C02030008B5024B1B685B69019308BDC3
:10470C003C02030008B5024B1B689B69019308BD72
:10471C003C02030008B5024B1B68DB69019308BD22
:10472C003C02030008B5024B1B689B6A019308BD51
:10473C003C02030008B5024B1B68DB6A019308BD01
:10474C003C02030008B5024B1B681B6C019308BDAF
:10475C003C02030008B5024B1B685B69019308BD62
:10476C006402030008B5024B1B685B6C019308BD27
:10477C004802030008B5024B1B689B6C019308BDF3
:10478C004802030008B5024B1B68DB6C019308BDA3
:10479C004802030008B5024B1B685B6D019308BD12
:1047AC004802030008B5024B1B689B68019308BDC7
:1047BC007802030008B5024B1B685B6F019308BDC0
:1047CC007802030008B5024B1B689B6F019308BD70
:1047DC007802030008B5024B1B68DB6F019308BD20
:1047EC007802030008B5034B1B68D3F8843001939F
:1047FC0008BD00007802030008B5034B1B68D3F812
:10480C009830019308BD00007802030008B5034BF3
:10481C001B68D3F8BC30019308BD0000780203007C
:10482C0008B5034B1B68D3F8C430019308BD0000D6
:10483C007802030008B5034B1B68D3F8E0300193F2
:10484C0008BD00007802030008B5034B1B68D3F8C1
:10485C00E430019308BD00007802030008B5034B57
:10486C001B68D3F8F030019308BD000078020300F8
:10487C0008B5034B1B68D3F8F430019308BD000056
:10488C007802030008B5024B1B685B68019308BDF6
:10489C001802030008B5024B1B68DB68019308BDC6
:1048AC001802030008B5024B1B685B69019308BD35
:1048BC001802030008B5024B1B689B68019308BDE6
:1048CC006802030008B5024B1B68DB68019308BD46
:1048DC006802030008B5024B1B685B6B019308BDB3
:1048EC006002030008B5024B1B681B6D019308BDE9
:1048FC006002030008B5024B1B685B6D019308BD99
:10490C006002030008B5024B1B68DB6E019308BD07
:10491C006002030008B5024B1B681B6F019308BDB6
:10492C006002030008B5024B1B68DB6B019308BDEA
:10493C004402030008B5024B1B685B68019308BD79
:10494C004002030008B5024B1B689B68019308BD2D
:10495C004002030008B5024B1B68DB68019308BDDD
:10496C004002030008B5024B1B681B69019308BD8C
:10497C004002030008B5024B1B685B69019308BD3C
:10498C004002030008B5024B1B689B69019308BDEC
:10499C004002030008B5024B1B68DB69019308BD9C
:1049AC004002030008B5024B1B681B6A019308BD4B
:1049BC004002030008B5024B1B681B6B019308BD3A
:1049CC004002030008B5024B1B685B6B019308BDEA
:1049DC004002030008B5024B1B681B6C019308BD19
:1049EC004002030008B5024B1B685B6C019308BDC9
:1049FC004002030008B5024B1B685B68019308BDBD
:104A0C002002030008B5024B1B685B69019308BDCB
:104A1C002002030008B5024B1B68DB6A019308BD3A
:104A2C002002030008B5034B1B68D3F888300193B0
:104A3C0008BD00002002030008B5034B1B68D3F827
:104A4C009430019308BD00002002030008B5024B0E
:104A5C001B681B68019308BD1C02030008B5024BC0
:104A6C001B685B68019308BD1C02030008B5024B70
:104A7C001B689B68019308BD1C02030008B5024B20
:104A8C001B685B6A019308BD1C02030008B5024B4E
:104A9C001B68DB6A019308BD1C02030008B5024BBE
:104AAC001B68DB6B019308BD1C02030008B5024BAD
:104ABC001B681B6C019308BD1C02030008B5024B5C
:104ACC001B685B6C019308BD1C02030000F1100312
:104ADC00012213F8101C0129184608D153F8041CA4
:104AEC0002EB4102013A03F11003F2D170470229A3
:104AFC0004BF53F8041C5218F4E70EB4F0B588B098
:104B0C0000AF07F13405102155F8042B7A600446E8
:104B1C002B467818FD60FFF7B1FF0F287A681AD979
:104B2C0000F1080323F007036E46ADEB030D411CA7
:104B3C002B466846FD60FFF7A1FF021E04DD2368CB
:104B4C0069469B6820469847B5462037BD46BDE868
:104B5C00F04003B070470028F7D0236802469B68EA
:104B6C0007F1100120469847EFE710B54368013B69
:104B7C000446436063B903689B689847A368013B8C
:104B8C00A3602BB923682046DB68BDE810401847AA
:104B9C0010BD38B50B6803604D6843689D420446F0
:104BAC0008D015B16B6801336B60606808B1FFF712
:104BBC00DCFF656038BD07B503688DF807109B688E
:104BCC0001220DF10701984703B05DF804FB0B4679
:104BDC001146002210B5C0E90022044683600BB9CF
:104BEC00204610BDFFF7D5FFFAE78368EBB11A78C2
:104BFC00032A1AD8DFE802F00417021B05207047BD
:104C0C0002685B685268D05C2D2812D0A0F130038A
:104C1C00092B0ED974280ED066280CD0A0F16E0387
:104C2C0058425841704706207047002070470420B6
:104C3C007047032070470220704710B50446FFF7F9
:104C4C00D4FF02280ED0C31EDBB2012B14D822686D
:104C5C00A36850685B68BDE810400A220021184424
:104C6C0004F090BA2268A36852685B68D05CA0F12B
:104C7C0074035842584110BD0020FCE738B500239E
:104C8C00C0E9003304460E48C4E90203A9B10B780D
:104C9C00032B06D08BB9136858684B68C35C6E2B1A
:104CAC0007D013684D6858688B6828445B1BA0605C
:104CBC00E36011462046FFF76CFF204638BD00BF6D
:104CCC00B9920B0038B500250B46C0E90055C0E978
:104CDC000255C0E90455044611464BB11A78012A15
:104CEC0006D103F11002DB6882604361FFF751FFCC
:104CFC00204638BD10B54369044663B18068E06056
:104D0C00013B1030A0602061636113B1FFF7DEFE40
:104D1C00A060012000E0184610BD10B57D210446AE
:104D2C00FFF749FF01232371204610BD08B5037915
:104D3C00012B02D0022B04D008BD2C21FFF73BFF26
:104D4C00FAE73A21FAE710B50446FFF7EFFF2046E1
:104D5C007B21FFF730FF00232371204610BD00009C
:104D6C0013B504460191FFF7E1FF2368019ADB6854
:104D7C0003492046984701232046237102B010BDF9
:104D8C0002940B0013B504460191FFF7CFFF236883
:104D9C00019ADB680349204698470123204623717A
:104DAC0002B010BD05940B002DE9F0470D462221F1
:104DBC0090460446FFF7FFFEDFF8A490A8442F4668
:104DCC004745BA463DD017F8016B222E06D05C2E13
:104DDC0004D0304604F066F80028F1D12368AAEB21
:104DEC0005029B682946204698475C212046FFF720
:104DFC00E2FE0D2E0AD8072E1CD9A6F10803052BAE
:104E0C0018D8DFE803F00D0F11171315222E01D05F
:104E1C005C2E0FD131462046FFF7CDFE3D46CFE745
:104E2C006221F8E77421F6E76E21F4E76621F2E7D8
:104E3C007221F0E723683246DB68494620469847E2
:104E4C00ECE7BD4205D023687A1B9B6829462046B7
:104E5C00984722212046FFF7AEFEBDE8F08700BF41
:104E6C0008940B0013B50446CDE90021FFF75EFF53
:104E7C002046DDE90021FFF797FF0223204623712E
:104E8C0002B010BD13B50446CDE90021FFF74EFF6B
:104E9C002046DDE90021FFF787FF0123204623711F
:104EAC0002B010BD10B50446006808B1FFF75DFEF6
:104EBC00204610BD10B58368044613B10322014689
:104ECC009847204610BD002340681A46FFF732BDB4
:104EDC00406800220221FFF73DBD002240681146C8
:104EEC00FFF730BD002240681146FFF73BBD0023A1
:104EFC0040681A461946FFF73DBD002340681A4624
:104F0C001946FFF73FBD40680021FFF763BD4068BD
:104F1C000021FFF767BD4068002281F00101FFF717
:104F2C0039BD40680022FFF745BD0022406811469C
:104F3C00FFF748BD002240681146FFF733BD2DE94D
:104F4C00F04395B014460D46074600F09DF900213C
:104F5C001C220DA8009103F0E5FF40230C93204682
:104F6C006B460CAA0021FFF7ADFC044600284BD180
:104F7C00024601216868FFF7F5FC022180462246B3
:104F8C006868FFF7EFFC009E81462146002E3BD05F
:104F9C00002939D17368022B03D00A2B11D0F66982
:104FAC00F4E7B8F1000FFAD0716906A8043107AD27
:104FBC0000F098F90FCD3C1D0FC42B6823704146AF
:104FCC00EDE7B9F1000FEAD07469102201A803F0E3
:104FDC00A9FF06238DF8143001AD04F10803183431
:104FEC00186859682A4603C20833A3421546F7D1FC
:104FFC0001A906A807AD00F055F90FCD3C1D0FC453
:10500C002B6823704946CAE70098FFF753FC3846D3
:10501C0015B0BDE8F0830000024B034A1A60002271
:10502C005A607047A0E6032018940B0000224068D9
:10503C001146FFF797BC002240681146FFF7B2BC3F
:10504C00002240681146FFF7BDBC40680022FFF704
:10505C00B1BC4068002281F00101FFF79BBC00232A
:10506C0040681A461946FFF78DBC002340681A4663
:10507C001946FFF77FBC002240681146FFF762BC5F
:10508C00406800220221FFF765BC002340681A46E5
:10509C00FFF750BC024B04225A60024A1A60704758
:1050AC00A8E6032054940B0038B50D1E0446006886
:1050BC0003DDFFF7DBFC18B938BDFFF7CFFC002090
:1050CC002060A5600120F7E738B50023C0E9003364
:1050DC0083600D4649689942044610DDFFF7E4FFF2
:1050EC0068B1D5E9003122681944994205D00AB15A
:1050FC001878107001330132F7E76B686360204653
:10510C0038BD417470477047704708B50021007C6A
:10511C00FFF7C0FA40EAE07008BD08B50121007C39
:10512C00FFF7B8FA40EAE07008BD08B5007CFFF75D
:10513C00A9FA20EAE07008BD08B5007CFFF79AFADE
:10514C0020EAE07008BD13B50446007C0191FFF71E
:10515C0099FA0028019901DC607C20B1207CFFF7D2
:10516C00A1FA20EAE07002B010BD007CFFF7A2BAF1
:10517C0010B514210446FEF78AFF204610BD00002E
:10518C0010B54FF47A73044608460021C4E90113A4
:10519C00044B23600123207463741146FFF752FA09
:1051AC00204610BD98940B00007C0022FFF752BAE9
:1051BC00007CFFF757BA10B514220446002103F007
:1051CC00B1FE204610BD000010B50F4C88B003A8EE
:1051DC00FFF7F1FF2178BFF35B8F11F001010FD1C5
:1051EC0020460191FEF762FF019948B103AA0748D6
:1051FC00FFF7C6FF2046FEF75EFF054803F04CFEA6
:10520C00024808B010BD00BFB0E60320B4E603208E
:10521C0013510B00704710B518210446FEF737FFE9
:10522C00204610BDF0B5037D062B8DB00E4600F167
:10523C0004074FF0000412D000F1080515F8011D09
:10524C000A22304601F0DFF8AF42044419D0002C9A
:10525C00F4D02E21304601F0C7F80444EEE72F239A
:10526C006A4639460A208DF80040FFF773FA684603
:10527C0003F0B7FE33680246DB6869463046984750
:10528C00044620460DB0F0BD10B5054B0446112266
:10529C0040F8043B002103F045FE204610BD00BF42
:1052AC00C8940B000346074A10B543F8042B01F1D0
:1052BC00100251F8044B43F8044B9142F9D10A788F
:1052CC001A7010BDC8940B0010B59DF8084044EA44
:1052DC00032343EA024242EA01610423416003755D
:1052EC0010BD000007B5064B0360CB7800938B789C
:1052FC004A780978FFF7E8FF03B05DF804FB00BFBC
:10530C00C8940B0013B50B460246D0E900016C465D
:10531C0084E8030093E8030082E8030094E80300A8
:10532C0083E8030002B010BD014B1860704700BF4A
:10533C001CE603207047000008B50B4B43B1FFF788
:10534C0043FF03681B699847002801DDAFF3008019
:10535C00064B43B103F062FC03681B6998470028B5
:10536C0001DDAFF3008008BD00000000000000006C
:10537C0008B5FFF7E1FFFFF795FA014B186008BD80
:10538C0040E703200548064A064908B5121A03F0FF
:10539C00A1FD054B054A1A6008BD00BF00F40320AF
:1053AC0004F40320A49B0B0000F403201E1C279A7A
:1053BC0007B5002300931A466FF07701FFF73CFB0B
:1053CC0003B05DF804FB000007B543880A2B08D036
:1053DC00502B0BD1094B1B684BB103B05DF804EBA0
:1053EC001847FFF7E5FF03B05DF804FB00230093BB
:1053FC001A466FF07701FFF71FFBF4E7CCE60320AA
:10540C0010B512480021FFF759FB114B1A68114BCC
:10541C009A42114B0CBF012200221A7001D0FFF7E7
:10542C00B1FFFFF72FFA044603F084FD0B4B13B1C9
:10543C002046AFF3008000210848FFF773FABDE85F
:10544C00104007480021FFF7EDBA00BF35530B00A1
:10545C0000F403201E1C279AC8E60320000000005D
:10546C00D5530B00014B00229A607047D0E6032005
:10547C000021FFF7C7BA0000024B1A68024B1A60F2
:10548C00704700BF10E60320E0E603208068036845
:10549C00DB6818477047084611B10B685B68184702
:1054AC007047704770477047704738B504460D46D3
:1054BC0000682E2103F079FD2368C31A2B6023B1F9
:1054CC00037803B1013023682060184638BD10B54D
:1054DC000C210446FEF7DBFD204610BD10B504215F
:1054EC000446FEF7D4FD204610BD10B50421044639
:1054FC00FEF7CDFD204610BDFFF744B908B503F00B
:10550C005EFDB0FA80F0400908BD704710B50C463E
:10551C00FFF75AFE844210D003F080FB844205D181
:10552C0003F07CFBBDE8104003F011BA2CB12368EA
:10553C0020465B68BDE81040184710BD0B6803603F
:10554C004B68436013B15A6801325A60704713B507
:10555C0004460846019103F044FD01990246204699
:10556C0002B0BDE81040FFF78DBC13B504460846E9
:10557C00019103F036FD23680199DB680246204651
:10558C0002B0BDE81040184707B503688DF8071046
:10559C00DB6801220DF10701984703B05DF804FBAD
:1055AC000EB403B503AB002153F8042B006A01932E
:1055BC0000F047FF02B05DF804EB03B070470A68D7
:1055CC0002604A6842600022C0E9022210B5026102
:1055DC008C688460CC68C4600C698A60CA600461A1
:1055EC000A6110BD2DE9F74FD0E900844FF0140A81
:1055FC0000930AFB04F4184BA41017465C43454671
:10560C00002C21DD66100AFB06F005EB00093A467A
:10561C00B9F804B0285801915F4528BF5A4603F0E9
:10562C00E8FC002801994FF001030BD15F4503D131
:10563C00009A13703446E3E7FCD9A61B09F1140554
:10564C00013EF7E7F9DBF5E7A5EB08050248AD10DD
:10565C00684303B0BDE8F08FCDCCCCCC7FB50369EB
:10566C00057E019103B3F9B1002600F10C040396F9
:10567C0003A901A8FFF719FF0146A8B10DF10B030F
:10568C00039A8DF80B602046FFF7ACFF9DF80B30AA
:10569C0053B12368142404FB0034083434F9023C5D
:1056AC00002BA8BFDDB2E3E7284604B070BD0000B4
:1056BC0010B5094C2378BFF35B8FDB0709D4204668
:1056CC00FEF7F4FC28B12046FEF7F5FC034803F086
:1056DC00E3FB034810BD00BFE8E60320AF540B000A
:1056EC0014E6032010B5094C2378BFF35B8FDB075E
:1056FC0009D42046FEF7DAFC28B12046FEF7DBFC85
:10570C00034803F0C9FB034810BD00BFECE60320BF
:10571C0017550B0018E6032038B500250446C0E9E0
:10572C000055C0E904558560856140F8245FFFF79A
:10573C0019F8FFF7BDFFE061FFF7D4FF2573206276
:10574C00204638BD10B50A4C2378BFF35B8FDB07BE
:10575C000CD42046FEF7AAFC40B10648FFF7DCFF4C
:10576C002046FEF7A8FC044803F096FB014810BD48
:10577C00E4E60320F4E60320C95C0B00024A03496B
:10578C0003480023FFF7C6B8AD5A0B00395A0B007B
:10579C00B9590B0000231A4619461846FFF7BAB838
:1057AC0037B58D6804466846FFF7C8FE6A46294639
:1057BC002046FFF787FA01A8FFF774FB204603B0D9
:1057CC0030BD37B5CD6804466846FFF7B7FE6A466C
:1057DC0029462046FFF752FA01A8FFF763FB204643
:1057EC0003B030BD37B50D6904466846FFF7A6FE19
:1057FC006A4629462046FFF7EAF901A8FFF752FB53
:10580C00204603B030BD000070B58AB00D4601468D
:10581C0004A8FFF7C5FF144E04A8FFF76BFAE8B114
:10582C0004A96846FFF7CDFF02983146FFF766FEE4
:10583C00044610B12C1E18BF012401A8FFF732FB3F
:10584C00002CE9D004A96846FFF7CCFF6846FFF7A7
:10585C00F4F9286001A8FFF725FBDDE705A8FFF7A1
:10586C0021FB0AB070BD00BFF0940B0037B50C469D
:10587C0020461349154603F0A2FB50B9FFF7A4FCD0
:10588C004FF41651FFF790FC03B0BDE83040FFF722
:10589C009BBC0C49204603F092FB78B94FF416538D
:1058AC0001A928460193FFF7AFFF03F0B7F901995F
:1058BC0003F04AF803F0B2F903B030BD0020FBE767
:1058CC00F5940B00FC940B0070B5D0E90053142632
:1058DC00044606FB0356AE4205D005F10800FFF75F
:1058EC00F3FF1435F7E72068FFF7B8F8204670BDD2
:1058FC0070B5D0E90053044605EB0316AE4204D054
:10590C00284603F077F81035F8E72068FFF7A6F87B
:10591C00204670BD10B504460C30FFF7D5FF20466D
:10592C00FFF7E6FF204610BD10B5044B044640F8C7
:10593C00043BFFF7EFFF204610BD00BF04930B00A4
:10594C0010B50446FFF7F0FF20462421FEF79FFB1D
:10595C00204610BD10B5034B03600446FFF7E4FF6F
:10596C00204610BD94950B0010B50446FFF7F2FFCE
:10597C0020462421FEF78BFB204610BD0022C0E9F7
:10598C00002210B582600C6804604C6844608C681E
:10599C000A604A6084608A6010BD10B503680446D2
:1059AC001868FEF7F7FE204610BD00002DE9F04FF9
:1059BC0087B0804603931C4B5B68C3F3080389468E
:1059CC0016466BB9FFF7BEFE044600F12403406A8D
:1059DC000593FFF791FD237B2BB105A8FFF7DDFFA6
:1059EC0007B0BDE8F08F01232373D4E900535FFAAD
:1059FC0089F905EB830AAA4512D055F8047B314688
:105A0C00381DFFF72BFE8145F5D33B68039A0092B6
:105A1C00D3F808B04A46334641463846D847EAE7F9
:105A2C0000232373D9E700BF00ED00E02DE9F74F09
:105A3C009B461A4B5B68C3F308038046894616469F
:105A4C006BB9FFF77FFE044600F12403406A019313
:105A5C00FFF752FD237B2BB101A8FFF79EFF03B08C
:105A6C00BDE8F08F01232373D4E90053F6B205EBA4
:105A7C00830A55450ED055F8047B5946381DFFF75F
:105A8C00EDFD8642F5D33B684A46DB684146384615
:105A9C009847EEE700232373DEE700BF00ED00E03C
:105AAC002DE9F341164B5B68C3F3080305460F461B
:105ABC001BBBFFF747FE00F124030446406A019329
:105ACC00FFF71AFDD4E90063462406EB8308B045C2
:105ADC0009D101A8FFF761FFA542B4BF0020012046
:105AEC0002B0BDE8F08156F8040B39460430FFF7DC
:105AFC00B5FD8442A8BF0446E9E70020F0E700BFEB
:105B0C0000ED00E0F8B5D0E901539D4204460E4685
:105B1C000DDB6F1C002F006804DDB900FEF7A6FF3B
:105B2C0018B9F8BDFEF79AFF00202060A76027681F
:105B3C00626807EB85019200A2EB8502081D03F059
:105B4C00D7F947F825606368013363600120E8E703
:105B5C0037B500F124030446406A01930D46FFF764
:105B6C00CBFCD4E9003203EB8202934219460BD0F2
:105B7C000968A94203F10403F7D101A8FFF70DFF4F
:105B8C000025284603B030BD29462046FFF7BAFF52
:105B9C0005460028F1D06368012B01D1FFF7EEFD1B
:105BAC0001A8FFF7FAFEECE770B50446D0E9000255
:105BBC000B4600EB820282420FD001461D6851F861
:105BCC00046BAE4207D1521A03F092F96368013BA1
:105BDC006360012070BD0846EDE70020FAE71FB5B1
:105BEC0000F124030446406A01910393FFF784FCFF
:105BFC0001A92046FFF7D8FF18B163680BB9FFF76E
:105C0C00C9FD03A8FFF7C9FE04B010BD70B5D0E9FB
:105C1C0004561823044603FB0656AE4215D005F174
:105C2C0010012046FFF7C0FF63680BB9FFF7B2FD08
:105C3C00E06929690368DB689847696919B1206ACA
:105C4C000368DB6898471835E7E7D4E9045318264E
:105C5C0006FB0356AE4204D0284602F0CBFE1835A4
:105C6C00F8E70023636170BD73B50446FFF792FD3E
:105C7C0004F12403606A0193FFF73EFC2046FFF712
:105C8C00C5FF01A8FFF789FE606A08B1FEF772FD37
:105C9C00D4E90453182606FB0356AE4204D028461A
:105CAC0002F0A8FE1835F8E72069FEF7D7FE206849
:105CBC00FEF7D4FE204602B070BD00000148FFF78D
:105CCC00D3BF00BFF4E603208842F8B504460D4666
:105CDC00164615D9904214D2A2F11406751AA1F1E8
:105CEC0014072C44B7421AD01CB131462046FFF79A
:105CFC0066FC06F10800FFF7E7FD143E143CF1E7E3
:105D0C000DD0B5420BD01CB129462046FFF757FCED
:105D1C0005F10800FFF7D8FD14351434F1E7F8BD90
:105D2C008842F8B504460D46164614D9904213D253
:105D3C00A2F11006751AA1F110072C44B74218D025
:105D4C001CB13146204602F0D1FE304602F052FE24
:105D5C00103E103CF2E70CD0B5420AD01CB12946DB
:105D6C00204602F0C3FE284602F044FE10351034E3
:105D7C00F2E7F8BD70B50E1E054611DD3001FEF7D9
:105D8C0065FE044658B1D5E9001201EB0212FFF78B
:105D9C00C7FF2868FEF762FE2C60AE60012070BD64
:105DAC000024F6E72DE9F04F904695B000230391BF
:105DBC00D8F804100A9346229942C0E90033C0E98E
:105DCC000233C0E90433CDE908330446027623DC00
:105DDC00D8E90057142303FB0757AF423BD02946A1
:105DEC000BA802F083FE0BA90FA8099E02F07EFE01
:105DFC00DDE9091399421BDA089B099A03EB061695
:105E0C0003EB0212314606F11000FFF789FFEEB9E1
:105E1C00099B0133099311E008A8FFF7ABFF002899
:105E2C00D6D108A8FFF764FD204615B0BDE8F08F69
:105E3C00013108A8FFF79EFF0028DDD10FA802F062
:105E4C00D9FD0BA802F0D6FD1435C6E70FA93046D4
:105E5C0002F04CFEDCE70026CDE90B660D964FF008
:105E6C001409DDE908239E427CDA3301D3580693EA
:105E7C000BB90136F5E70023079309FB06F30293F0
:105E8C000BAD07A906A8FFF710FB82460028F0D03F
:105E9C004FF000038DF817300146079A0DF11703E8
:105EAC002846FFF79FFB9DF817700190002F4AD1F1
:105EBC00BDF81C30ADF84030CDE911774FF6FF73CB
:105ECC00CDF83CA0ADF842301397D5E9013293429E
:105EDC0017DB03F1010ABAF1000F30DD09FB0AF000
:105EEC00FEF7B4FD834660B3D5E9001209FB02123C
:105EFC00FFF7EAFE2868FEF7B1FDC5F800B0C5F85B
:105F0C0008A02B68019A09FB023A6A68514609FB02
:105F1C0002320AF11400FFF7D7FEBAF1000F03D0DA
:105F2C000FA95046FFF74BFB6B6801336B6011A850
:105F3C00FFF7CAFC3FB10BA8FFF7C6FC71E7BB46E5
:105F4C00D8E70127F3E7019B2D6809FB0355069B56
:105F5C001B782BB9D8F80030029A13441B7CEB80C9
:105F6C0008358EE72168226062686360A368099235
:105F7C000A9A0A93E368A2600B9A0B932369E26076
:105F8C000C9A0C93636922610D9A0D93039B0891F3
:105F9C0062612376CFE70000F0B5044687B00D466A
:105FAC002646194668461746FEF725F90B4B46F868
:105FBC00043B694603A8FEF71EF903AA394630468E
:105FCC00FFF7F0FE03A8FEF7BBF86846FEF7B8F83B
:105FDC00034B23602046256207B0F0BD04930B00F1
:105FEC007C950B00F0B50F4685B01D490A9C3846D0
:105FFC0016461D4602F0E3FFC0B9A4B1294601A81C
:10600C00FFF7BCFC1749242002F02CFE054630B1EA
:10601C0001AB32462146FFF7BFFF134B2B6001A8A3
:10602C00FEF78EF82C46204605B0F0BD0F493846D9
:10603C0002F0C5FF90B9002CF5D0294601A8FFF756
:10604C009DFC0849242002F00DFE05460028E6D0F0
:10605C0001AB32462146FFF79FFFE0E70024E2E761
:10606C0004950B00C8980B0094950B0008950B0039
:10607C00014B024A1A607047F0E6032099920B001C
:10608C002DE9F047089DD0F8209004460E4617469F
:10609C009846FFF799F881454CD02B79190704D510
:1060AC006A6954492046FFF77BFAB8F1000F0DD00E
:1060BC005B212046FFF768FA41462046FFF755FA68
:1060CC0023684D49DB680222204698472B79DA0772
:1060DC0023D5D5F808802F21404602F0BDFF08B12A
:1060EC0000F1010841462046FFF73FFA2B799B0748
:1060FC0008D53A212046FFF747FAEA683F4920467F
:10610C00FFF74EFA2A79236812F0040FDB6814BFEC
:10611C003B493C490222204698472B7958071DD50C
:10612C0029690B461A4613F8010B60B1202808D1D7
:10613C001946F7E73448FEF7FDFE0028ADD0BDE860
:10614C00F0872828EED12368521ADB68204698473E
:10615C0023682E49DB6804222046984700213846E4
:10616C00FEF7D0FB01462046FFF7FFF923682549CF
:10617C00DB680222204698471EB131462046FFF7C5
:10618C00F4F92B7913F0300F2CD023682049DB68FD
:10619C000222204698472B79D9060AD523681D4937
:1061AC00DB68072220469847AA691B492046FFF75F
:1061BC00F7F92B799A0611D5DB0605D5236810491A
:1061CC00DB6802222046984723681449DB68204686
:1061DC000A229847E9692046FFF7C7F95D21204656
:1061EC00FFF7D2F923680E49DB6820460222BDE88E
:1061FC00F047184719950B0020950B0002940B00E3
:10620C0023950B0028950B00A0E6032026950B0088
:10621C002B950B002E950B0036950B0039950B002A
:10622C0044950B002DE9F04385B0D0F820900C9CE0
:10623C0005460F4690461E46FEF7C6FF814505D122
:10624C004948FEF777FE002840F08A802B6A474ABF
:10625C0001924FF0000901A803938DF80890FEF706
:10626C0072FD49464046FEF74DFB414980460122EE
:10627C0001A8FEF7F7FD4146FFF769F93FB13D492B
:10628C00012201A8FEF7EEFD3946FFF760F93EB199
:10629C003949012201A8FEF7E5FD3146FFF757F910
:1062AC002379DF070ED5A6682F21304602F0D4FEE5
:1062BC0000B1461C3149012201A8FEF7D3FD31463D
:1062CC00FFF745F923799E0707D52D49022201A82E
:1062DC00FEF7C8FDE168FEF743FD2379580714D596
:1062EC00266933461F4613F8012B2AB1202A01D107
:1062FC001E46F7E7282AF5D12249022201A8FEF70B
:10630C00B1FDBA1B3146FEF7BDFD2379190707D540
:10631C001D49012201A8FEF7A5FD6169FEF732FDBA
:10632C002379DA0608D5042218490DEB0200FEF792
:10633C0099FDA169FEF714FD23799B0607D5144935
:10634C00062201A8FEF78EFDE169FFF700F901A80E
:10635C00FEF7E3FC286A0F4903680222DB689847C2
:10636C0005B0BDE8F08300BFA0E6032064950B00E8
:10637C00FA940B00A6920B004F9A0B0047950B005A
:10638C0049950B004C950B00AA920B004F950B00F6
:10639C0054950B0044950B00F8B506460D468F1826
:1063AC000024BD420CD0336815F8011B9B683046A5
:1063BC009847031E01DB1C44F3E7002C08BF1C4666
:1063CC002046F8BD13B50446084659B1019102F0B8
:1063DC0008FE23680199DB680246204602B0BDE83E
:1063EC001040184702B010BD03689B68184738B5B9
:1063FC000D210546FFF7F8FF0A2104462846FFF752
:10640C00F3FF204438BD30B58BB00023012A8DF842
:10641C00243098BF0A2209AC0D46B1FBF2F101FB06
:10642C00125303F0FF03092B94BF30333733DBB225
:10643C00AA4204F8013DEFD92146FFF7C3FF0BB088
:10644C0030BD2DE9F04186B000AF05460E46381D33
:10645C00142114463B60FEF711FB13280ED8391D8E
:10646C002846FFF7AFFF04461EB12846FFF7BFFFD3
:10647C00044420461837BD46BDE8F08100F10803FE
:10648C0023F00703E846ADEB030D2246411C3B68A5
:10649C006846FEF7F3FA69462846FFF793FF044671
:1064AC00C546E1E77047704770477047064B994205
:1064BC0010B500F10C0405D0084602F0DBFB0028F7
:1064CC0008BF0024204610BD88940B00064B99424F
:1064DC0010B500F10C0405D0084602F0CBFB0028E7
:1064EC0008BF0024204610BD88940B00064B99422F
:1064FC0010B500F10C0405D0084602F0BBFB0028D7
:10650C0008BF0024204610BD88940B0010B56821EC
:10651C000446FDF7BCFD204610BD10B528210446ED
:10652C00FDF7B5FD204610BD10B530210446FDF732
:10653C00AEFD204610BD6821FDF7A9BD2821FDF751
:10654C00A6BD3021FDF7A3BDF0B50025EC1C8C4297
:10655C000DD86E1C445D875D974205D12644B1422F
:10656C0005D31D60601CF0BD01342544EEE700200E
:10657C00F9E70000024A03490A20FEF7ABB900BF55
:10658C00A1480B00D4950B0030B40D4611461A46A9
:10659C00036809682868D3E90043A44630BC604707
:1065AC00012A38B5044602D10B68236003E0022AA5
:1065BC0003D0032A0DD0002038BD08200D68FDF74C
:1065CC0062FD03460028F0D095E8030083E8030041
:1065DC00EBE700680028EED00821FDF758FDEAE74C
:1065EC0010B5836804462BB103220146984700235B
:1065FC00C4E9023310BD10B5836804462BB10322E5
:10660C00014698470023C4E9023310BD10B500239E
:10661C008AB02022CDE902230446084A0092084998
:10662C0002AA0120FEF75EF92068064900880023C3
:10663C0022460AB0BDE81040FEF7E8B8F6950B000C
:10664C00EB950B00457F0B0010B5013802EB4101B7
:10665C0010F8013F1B0903F13004392C88BF03F1FA
:10666C00370402F8024B037803F00F0303F13004F4
:10667C00392C88BF03F13704914202F8014CE7D161
:10668C0010BD10B504465830FEF714FC04F1480058
:10669C00BDE8104002F0AEB938B503688B42054630
:1066AC000C4608D011B14B6801334B60286808B117
:1066BC00FEF75BFA2C6038BDA0F13003DAB2092A80
:1066CC0001D818467047A0F16103052B01D8573843
:1066DC007047A0F14103052B94BF37384FF0FF30C2
:1066EC007047000010B500230370044B0446186873
:1066FC00FEF748F801232370204610BD20E7032045
:10670C0010B5037804461BB1024B1868FEF742F82B
:10671C00204610BD20E703202DE9F8430646174616
:10672C000D46B1B34FF000094FF006081121284671
:10673C0002F086FC484508D842460021304602F05B
:10674C00F1FBB7710020BDE8F883B8F1000FF8D069
:10675C0015F80900FFF7B0FF030617D4000108F184
:10676C00FF38C4B206F808401121284602F068FC34
:10677C0009F10109814509D215F80900FFF79CFFC1
:10678C0043B2002BA4BF234306F8083009F10109DA
:10679C00CCE70148D7E700BFF2FEFFFF10B5044677
:1067AC00FFF7BAFF204610BD82B00346086849685F
:1067BC006A4603C26A4603CA18601846596002B09A
:1067CC00704708B582798B799A4206D1062202F07D
:1067DC0071FBB0FA80F0400908BD0020FCE74FF0D7
:1067EC00FF33036083800020704708B50246002108
:1067FC0001604160FFF7F3FF9171104608BD10B5C1
:10680C00431D01391C7801F8014F834203F1FF331A
:10681C00F8D110BD70B5144688B01A460D46002943
:10682C0048D0A4B101A9FFF7EAFF9AB103AA062147
:10683C0001A8661EFFF708FF112E28BF112632464D
:10684C0003A9284602F046FB0023AB55741C2046D6
:10685C0008B070BD03AA012101A8FFF7F5FE3A2686
:10686C000DF10F0201210DF105008DF80E60FFF7FF
:10687C00EBFE0DF1120201210DF106008DF81160F5
:10688C00FFF7E2FE0DF1150201210DF107008DF865
:10689C001460FFF7D9FE06AA012102A88DF8176033
:1068AC00FFF7D2FE8DF81A600DF11B0201210DF1DC
:1068BC000900BEE70C46CAE710B586B0044613467D
:1068CC000846122201A9FFF7A5FF01A9204602F0F4
:1068DC00DCF8204606B010BD10B501230361054B52
:1068EC00024603F1100153F8044B42F8044B8B425F
:1068FC00F9D110BD4A980B000B7C13F0FD0330B599
:10690C000DD103610C4B024603F1100453F8045BE8
:10691C0042F8045BA342F9D10B88838130BD01237B
:10692C00036101F11002034651F8044B43F8044B88
:10693C009142F9D1F2E700BF4A980B0010B50B4613
:10694C000446B1B1012A01F110020AD1014653F8F3
:10695C00040B41F8040B9342F9D101232361204627
:10696C0010BD411E12F8010D01F8010F9A42F9D128
:10697C00F3E7102202F0D6FAF1E738B504460D46DB
:10698C00FFF7AAFF00232361A581204638BD08B577
:10699C0002690B699A4206D1102202F08BFAB0FA06
:1069AC0080F0400908BD0020FCE710B500F10F0392
:1069BC0001391C7801F8014F834203F1FF33F8D100
:1069CC0010BD2DE9F0411F468EB00D4600295BD05D
:1069DC00DAB1D0F81080541EB8F1000F19D18389A8
:1069EC00CDF814805BBA05AA022101A8ADF80430D9
:1069FC00FFF72AFE042C28BF0424224605A92846AA
:106A0C0002F068FA05F80480621C10460EB0BDE86E
:106A1C00F08101A9FFF7C9FF05AA7FB1102101A8D8
:106A2C00FFF712FE242C28BF2424224605A9284651
:106A3C0002F050FA00232B55621CE6E704210DEB03
:106A4C000100FFF701FE2D260DF11D02022102A807
:106A5C008DF81C60FFF7F8FD0DF1220202210DF1FB
:106A6C000A008DF82160FFF7EFFD0DF127020221DE
:106A7C0003A88DF82660FFF7E7FD8DF82B600BAAB5
:106A8C0006210DF10E00CBE70A46BEE710B58AB021
:106A9C0004460023252208466946FFF792FF694603
:106AAC00204601F0F2FF20460AB010BDF7B50546AE
:106ABC0016461F460A4601ABD0E90001FFF744FD1C
:106ACC0030F002040CD0841EBC4228BF3C463EB1C0
:106ADC0001992B68023122461944304602F0FAF92A
:106AEC00204603B0F0BD37B513460C4601920A465A
:106AFC0008210546FFF7DAFF40B9019B2246092120
:106B0C00284603B0BDE83040FFF7D0BF03B030BD1E
:106B1C00F0B50C4689B00C49054601F0B6FF1F22B2
:106B2C0069462046FFF7DFFF064650B16C4600274A
:106B3C0014F8011B284602F027F810B10137BE42A9
:106B4C00F6D1284609B0F0BDB9920B0007B5022367
:106B5C0001AA1921FFF7AAFF08B1BDF8040003B080
:106B6C005DF804FB38B54FF6FF73002504464380EF
:106B7C000E22294605700571063002F0D3F904F196
:106B8C001400FFF7A9FE04F12800FFF7A5FE044945
:106B9C0004F13C0001F079FF6565204638BD00BF6B
:106BAC00B9920B0038B50D680446014605F1280072
:106BBC00FFF7EDFE40B1AB89A28A9A4205D8E08A74
:106BCC00984234BF0020012038BD0020FCE710B5EE
:106BDC00D0E9063203EBC2029342184606D0046891
:106BEC0024888C4203F10803F6D110BD0020FCE789
:106BFC00002370B5036005466820FDF744FA041EB7
:106C0C0004F10C0607D00123C4E90133044B2360C3
:106C1C003046FFF7A7FFC5E90064284670BD00BFEA
:106C2C00F8970B0010B503681A7886B052BB5C88D5
:106C3C004FF6FF70844225D0188A30B3CDE9032279
:106C4C000592134A0092134ACDE901235A88ADF8F4
:106C5C000C201A8AADF80E209A89ADF8102059B183
:106C6C001A79920644BF022205921B79DB0642BFB9
:106C7C00059B43F00103059300216846FDF7F8FDE1
:106C8C0006B010BD6FF0D100FAE76FF07700F7E7B0
:106C9C0003001800756E0B00F8B50026066005465B
:106CAC002820FDF7F0F9041E04F10C070AD001238B
:106CBC00C4E90133054B23603846FFF70DFE26620D
:106CCC0084F82460C5E900742846F8BD14980B00BC
:106CDC0070B50025056006463020FDF7D4F9044652
:106CEC0088B10123C0E90133094B03604FF6FF73F0
:106CFC0083810E30FFF779FDC4E90655C4E90855C8
:106D0C00C4E90A55A57574600C343460304670BD06
:106D1C0030980B0013B5044601A8FFF7E3FC236879
:106D2C001C884FF6FF73E41A01A818BF0124FFF763
:106D3C00E7FC204602B010BD37B505460C4601A84D
:106D4C00FFF7D0FC2A682368C2F802306368C2F8E7
:106D5C00063001A8FFF7D4FC03B030BD37B50D46A3
:106D6C00044601A8FFF7BEFC2A68D2F80230236063
:106D7C00D2F80630636001A8FFF7C2FC204603B0CE
:106D8C0030BD30B5054687B00C4601A8FFF7AAFC0C
:106D9C002A68236812881B889A420DD1294602A8BA
:106DAC00FFF7DCFF214604A8FFF7D8FF04A902A8CF
:106DBC00FFF707FD044600B9002401A8FFF7A0FC6B
:106DCC00204607B030BD000010B504466420FDF726
:106DDC005AF968B10023C0E90033C0E90233C0E9B5
:106DEC000433C0E906330362C362C363C364C3657F
:106DFC00206020B90A4A0B490A20FDF76BFD0020E0
:106E0C00FDF7D0FC20B1064A07490A20FDF762FDC8
:106E1C00216806480022FDF721FD204610BD00BF69
:106E2C00A1480B00D4950B0012960B00D9770B00E0
:106E3C0010B50A4C2378BFF35B8FDB070CD42046CC
:106E4C00FDF734F940B10648FFF7BEFF2046FDF7C9
:106E5C0032F9044802F020F8014810BD1CE7032069
:106E6C0024E7032039710B0030B50368093B012B73
:106E7C008DB004460D4611D8FFF7DAFFA1880068E3
:106E8C00FFF7A5FE034658B92022CDE904200B4A92
:106E9C0000920B4904AA3220FDF724FD0DB030BD41
:106EAC006A6D002AFAD0D4E9032105F14C00CDE932
:106EBC000312AC6D04AA03A9A047EFE754960B008C
:106ECC00EB950B0008B50020FDF76CFC00EAE070B8
:106EDC0008BD000070B5044618300E461546FFF785
:106EEC007FFB04F12800FFF786FBC4E90365002251
:106EFC0021460348FDF76EFC0028A8BF606970BDF1
:106F0C0081860B0010B504464069FDF7A7FDA0680B
:106F1C00FDF7A4FD204610BD002247F67F71C0E9A5
:106F2C000022C0E90222C0E90422C0E90E22C0E915
:106F3C001022C0E91222C0E91422C0E91622C0E9CD
:106F4C001822C0E91B2202620263A0F86810704785
:106F5C0030B585B0002410230D46ADF80230214623
:106F6C0003236846ADF80030CDE901440394FDF7E6
:106F7C0029FC21466846ADF80850FDF71BFC05B00E
:106F8C0030BD10B504460068FDF768FD204610BD05
:106F9C0070B50446C06DFDF761FD206DFDF75EFD1B
:106FAC0004F1380504F14400FFF7EBFF2846FEF727
:106FBC009FFC04F12800FDF77DFF04F11800FDF79C
:106FCC0079FFD4E90053242606FB0356AE4204D0C5
:106FDC002846FFF797FF2435F8E72068FDF73EFDBC
:106FEC00204670BD30B515469FB00C4679B172B1D4
:106FFC0001A8FFF791FF21462A4601A8FFF76AFF77
:10700C00044601A8FFF7C4FF20461FB030BD014C59
:10701C00FAE700BFF2FEFFFF38B5141E43680546C1
:10702C0002DB62189A4200DD5C1A2A6850180119BA
:10703C001A44521A01F05CFF6A68121B6A6038BD70
:10704C0038B500230446836008200D46FDF71BF875
:10705C0018B12B6803606B684360034BE360034B10
:10706C002060A360204638BD95650B00AD650B0014
:10707C000B68036013B15A6801325A60704710B53F
:10708C0051F8043B044640F8043BFFF7F1FF23683A
:10709C000BB9FFF76FFA204610BD10B551F8043B41
:1070AC00044640F8043BFFF7E3FF204610BD10B543
:1070BC0051F8043B044640F8043BFFF7D9FF204647
:1070CC0010BD10B504460430FDF7ECFE204610BD93
:1070DC0070B5D0E90053044605EBC306AE4204D0AC
:1070EC00281DFDF7DFFE0835F8E72068FDF7B6FC34
:1070FC00204670BD70B5D0E90053044605EBC306BD
:10710C00AE4204D0281DFDF7CDFE0835F8E7206807
:10711C00FDF7A4FC204670BD10B504462430FFF7E3
:10712C00E9FF04F11800FFF7D3FF10BD70B5174B42
:10713C001C6854B304F15400FDF7BCFE04F1440088
:10714C00FDF7B8FE04F13400FDF7B4FE04F12400A1
:10715C00FDF7B0FED4E9065305EBC306AE4204D0EE
:10716C00281DFDF79FFE0835F8E7A069FDF776FCB2
:10717C0004F10C00FFF7BEFF2046FFF7A9FF2046E5
:10718C006421BDE87040FCF782BF70BD24E703208A
:10719C00826810B50AB901F069FDBDE81040C368FA
:1071AC0018472DE9F0470023C0E900338360D1F87C
:1071BC000480984505460F464ADD4FEA0810FDF756
:1071CC0045FC0646002843D0D5E90041A04204EB1B
:1071DC00011A16D9504515D2AAF1100AA4F11009BA
:1071EC00AAEB04040444D1451DD01CB151462046E1
:1071FC0001F07CFC504601F0FDFBAAF1100A103C9A
:10720C00F1E710D0B146A2450DD0B9F1000F03D073
:10721C002146484601F06AFC204601F0EBFB103495
:10722C0009F11009EFE72868FDF718FCC5F808808C
:10723C002E60D7E9004304EB0318A04506D0214685
:10724C00304601F06DFC10341036F6E77B686B604D
:10725C002846BDE8F08730B58DB00C4600F13801FA
:10726C0001A8FFF79EFF029B002B2FDD04F11401F8
:10727C0004A8FFF74DFC04F1080108A8FFF748FC2F
:10728C000A9A069B13431FD0DDE9014504EB051553
:10729C00AC4219D004A9204601F098FC60B101243D
:1072AC0008A801F0A7FB04A801F0A4FB01A8FEF7B5
:1072BC001FFB20460DB030BD204608A901F086FC0E
:1072CC0010340028E4D0EAE70024E9E70124EDE7D4
:1072DC00F8B50023C0E9003383604F689F42054630
:1072EC000E463EDDF800FDF7B1FB0446C8B3D5E908
:1072FC000003844200EBC30310D99C420FD2083B1D
:10730C001A1AA0F1080C22449C4518D01AB119681D
:10731C00116059685160083B083AF5E70FD00146F7
:10732C0022468B420BD03AB1D1F800C0C2F800C053
:10733C00D1F804C0C2F804C008310832F1E7FDF7F7
:10734C008DFB2C60AF60D6E9003103EBC100984295
:10735C0006D01A6822605A68626008330834F6E76F
:10736C0069602846F8BD70B504460020C4E90000E9
:10737C00A0604E6886420D4612DD7100FDF776FB6B
:10738C0070B12060A660D5E9003203EB42029A424C
:10739C0004D033F8021B20F8021BF8E76B6863601B
:1073AC00204670BD10B50379044623B903681868EC
:1073BC0008B1FDF753FB204610BD10B50379044608
:1073CC0023B90368186808B1FDF748FB204610BDC7
:1073DC002DE9F043D0F86C808FB00F46B8F1000F58
:1073EC0072D0056F002D6FD001F114091F230022FC
:1073FC00FF214846FFF75AFB0837FF2304460022BB
:10740C0019463846FFF752FBAC42064606D0AE4250
:10741C0030D0002420460FB0BDE8F0832046FDF7A5
:10742C0015FB03AB04930023044603908DF8143032
:10743C0070B92023CDE90630244B00932449034630
:10744C0006AA3220FDF74EFA04A8FFF7ABFFE1E7DE
:10745C000246FF212B464846FFF728FB03982A4695
:10746C00414601F027FD18B104A8FFF79BFFCEE7BA
:10747C000124E9E72846FDF7E9FA002403AB0646A8
:10748C00039004938DF8144078B92023CDE906308D
:10749C000E4B00930E49034606AA3220FDF722FA42
:1074AC00344604A8FFF789FFB4E70246FF212B46B8
:1074BC003846FFF7FBFA03982A46414601F0FAFCDE
:1074CC000028EED10124ECE70124A3E76C960B0015
:1074DC00EB950B0008B583688B4202DAFDF7E4FDEF
:1074EC0008BD0120FCE738B50B6803604B684360AE
:1074FC0004460D4608300831FDF7E6FD05F1140190
:10750C0004F11400FDF7E0FD95F8203084F82030EC
:10751C00204638BD1FB5044601A8FDF7D5FD019BDB
:10752C00029A2068236063686260039A0293A368DE
:10753C00A26001900393FDF791FA04B010BD2DE900
:10754C00F0410F4641681D46194483689942044630
:10755C00904612DC266862683E44D21B3146701994
:10756C0001F0C6FC2A464146304601F0B3FC636884
:10757C002B4463600120BDE8F081FDF795FD0028E8
:10758C00E8D1F8E713460A46002110B504464160DD
:10759C0002B10BB9002010BDFF2B28BFFF23FFF752
:1075AC00CEFF0028F7D06068F5E7F8B50D46D0E9B6
:1075BC0001139942044616460BDA2768626879195A
:1075CC00521B481C01F094FC7E55636801336360C8
:1075DC00F8BD0131FDF768FD0028EED1F8E70A4649
:1075EC004168FFF7E2BF2DE9F74304461D460F46FD
:1075FC0001AB90460A46D0E900019DF82890FEF7B1
:10760C00A3FFAE1C63680246B9F1000F26D128B364
:10761C0033441B1AFF2B09D801992046FFF7FCFCB9
:10762C00616820463144FFF755FF18B9606803B014
:10763C00BDE8F0836A1C0199D2B22046FFF7B5FF72
:10764C0001993A4601312046FFF7AFFF01992B46CD
:10765C00424602312046FFF772FFE7E7F118FF2997
:10766C00E4D82046FFF736FF0028DFD0691CC9B2EA
:10767C002046FFF7B4FF39462046FFF7B0FF61689C
:10768C002B464246E6E730B49DF808501AB10295F5
:10769C0030BCFFF7A8BF406830BC70471FB5002353
:1076AC00C0E9003383600622009301238DF80F207C
:1076BC0019460DF10F020446FFF7E5FF204604B012
:1076CC0010BD8842F8B504460D46164614D99042B2
:1076DC0013D2A2F10806751AA1F108072C44B7427F
:1076EC0018D01CB131462046FFF7E1FC301DFDF7E8
:1076FC00D9FB083E083CF2E70CD0B5420AD01CB1CD
:10770C0029462046FFF7D3FC281DFDF7CBFB083597
:10771C000834F2E7F8BDF7B5044646686846FFF74B
:10772C00C6FCD4E901739F4212DB0137002F29DD1F
:10773C00F800FDF78BF90546F0B1D4E9001201EB26
:10774C00C202FFF7BEFF2068FDF788F92560A7602D
:10775C002368626803EBC60603EBC202314606F1EE
:10776C000800FFF7AEFF1EB169463046FFF79FFCDD
:10777C00636801336360012501A8FDF793FB28467C
:10778C0003B0F0BD0025DEE7F8B5D0E900430546AF
:10779C000F4604EBC306A64205D039462046FFF738
:1077AC00F0FA08B114B9F8BD0834F4E7201DFDF760
:1077BC0079FBD5E9003204F1080103EBC202204643
:1077CC00FFF77FFF6B68013B6B60ECE72DE9F04145
:1077DC0005468EB003A80C46FEF784FF2E68F31EF8
:1077EC000D2B3CD8DFE813F00E0053003B00D1000A
:1077FC003B003B003B003B003B009B009B009B0085
:10780C009B009B0004A8FFF763FA049BAA891A80CB
:10781C006968049808310230FEF7C6FF04A906A86F
:10782C00FFF745FC06A904F11800FFF774FF0546A5
:10783C0007A8FDF737FB20230693B5B95D4B5E49CE
:10784C00009332202B4606AA0795FDF74BF8049BB4
:10785C0029461888FCF7D0FF05A8FDF723FB03A8E1
:10786C00FEF74EFF0EB0BDE8F081544A00920023A3
:10787C005149079306AA0120FDF734F8E36A002B5F
:10788C00EAD004A904F12400FFF782FCE4E7A989FB
:10789C002046FFF79CF906460028E0D00568D5E99C
:1078AC0006324FF6FF71298003EBC2029A4203D0D5
:1078BC0053F8080B4180F9E7D5E9037307EBC308CC
:1078CC00B84504D0381DFDF7EDFA0837F8E700236A
:1078DC002B61D5E9067307EBC308B84504D0381DF6
:1078EC00FDF7E0FA0837F8E70023EB61AB72E36BC6
:1078FC0023B1314604F13400FFF74AFC0023202267
:10790C00CDE906232E4A00922B4906AA0120FCF74A
:10791C00E9FF314604F11800FFF736FF9FE7A9890C
:10792C002046FFF754F9002899D0E36C002B96D031
:10793C0000230D2EADF8163001D0102E17D10023D8
:10794C0069681A4606258DF8153004918DF81420B7
:10795C000690DDE9040109AB8DF81C60089583E8FD
:10796C000300236D06A904F14400984777E70F2E16
:10797C0001BF2B7A696803F0010208250FBFC3F31E
:10798C0040031A4619461D46DDE7A9892046FFF734
:10799C001EF9014600283FF462AFE36D002B3FF463
:1079AC005EAF6B68069306AA236E04F154009847E9
:1079BC0055E700BF87960B00EB950B00AD960B00BF
:1079CC00CA960B0013B50446FFF7A4F9D0B123688F
:1079DC0000211888FCF710FF002811DB01A8FEF726
:1079EC0081FEFFF725FA006821461830FFF7CCFE20
:1079FC0023684FF6FF721A8001A8FEF781FE002063
:107A0C0002B010BD6FF0D100FAE70846FFF7DABFFD
:107A1C0038B50D1E0446006805DD14216943FDF7D9
:107A2C0025F818B938BDFDF719F800202060A560BD
:107A3C000120F7E72DE9F8430024C0E900448460F5
:107A4C0088464968A14207461ADDFFF7E1FFB8B145
:107A5C00D8E900934FF0140CD7F800E00CFB039C12
:107A6C0009EB0405AC4508D01EEB04061FBF0FCD77
:107A7C000FC62B6833601434F2E7D8F804307B60FF
:107A8C003846BDE8F8832DE9F843D1E9008745680D
:107A9C008368E9199942044617DC14232668626846
:107AAC005D4303FB07F95A432E44521B314606EB48
:107ABC00090001F01DFA4A464146304601F00AFA27
:107ACC0063683B446360BDE8F883FFF7A1FF0028BF
:107ADC00E3D1F8E782B070B50C4604A981E80C003C
:107AEC00D0E901139942054617DA142303FB04F17C
:107AFC006A682C685A430C44521AE018214604AEAA
:107B0C0001F0F6F90FCE0FC4336823606B680133B4
:107B1C006B60BDE8704002B070470131FFF778FF31
:107B2C000028E2D1F5E72DE9F04F002493B0931E25
:107B3C00C0E90044DBB205460F46904684600593CD
:107B4C0079688C4272DA386807AB4246091B2044CC
:107B5C00FEF7FAFC0646002868D0059B012B2FD8AF
:107B6C00A0F1020B4FEA5B0B4FF000090DF13C0A40
:107B7C00079BCB45234455D03A6803EB4903134488
:107B8C0008A8D9789B7843EA0121FEF7F6FE0DF19F
:107B9C00200EBEE80F000DF1340CACE80F00DEF83F
:107BAC000030CCF800309AE807008DE807000DABE8
:107BBC000CCB69682846FFF78DFF09F10109D7E75F
:107BCC00A8F10603012B2DD8A0F1020B4FEA1B1BC9
:107BDC004FF000090DF13C0ACB45079B22D0023334
:107BEC003968234403EB09130122194408A8FEF752
:107BFC00A5FE0DF1200EBEE80F000DF1340CACE823
:107C0C000F00DEF80030CCF800309AE807008DE861
:107C1C000700DDE90D2369682846FFF75BFF09F1D2
:107C2C000109D9E7079B1C44344489E7284613B063
:107C3C00BDE8F08F30B5002385B0C0E90033836018
:107C4C000446022201A80D46FFF76DFF01A920464C
:107C5C00FFF719FF01A8FFF794F90222294601A8A2
:107C6C00FFF761FF01A92046FFF70DFF01A8FFF701
:107C7C0088F90322294601A8FFF755FF01A92046E0
:107C8C00FFF701FF01A8FFF77CF90622294601A89E
:107C9C00FFF749FF01A92046FFF7F5FE01A8FFF702
:107CAC0070F90722294601A8FFF73DFF01A92046DC
:107CBC00FFF7E9FE01A8FFF764F9204605B030BDD7
:107CCC002DE9F04F8BB00C4600F1440101A8FFF7F1
:107CDC00B1FE029B002B4ADD04F1140104A8FFF74E
:107CEC00A9FF04F1080107A8FFF7A4FF059D089E52
:107CFC00002D01DC002E38DD019A029FDDF810808A
:107D0C00DDF81C90142303FB072703FB058503FBFD
:107D1C0006969246BA4528D0C346AB4515D059466F
:107D2C005046FEF734FE0BF1140B04460028F4D039
:107D3C0007A8FFF726F904A8FFF723F901A8FFF716
:107D4C0020F920460BB0BDE8F08FCB46B34509D0E7
:107D5C0059465046FEF71BFE0BF1140B0446002847
:107D6C00F4D0E5E70AF1140AD4E70024E0E7012493
:107D7C00E4E738B505460C46FDF7C4FAAB68A268D3
:107D8C00AA60A360EB68E268EA60E36038BD10B5F6
:107D9C0004688AB04C34B9B1CDE9001202A8694626
:107DAC00FFF74EF9002306A902A80893FFF7E1FF9D
:107DBC00214606A8FFF7DDFF06A8FDF77BF802A811
:107DCC00FDF778F80AB010BD0491EBE78842F8B5DE
:107DDC0004460D46164614D9904213D2A2F1080659
:107DEC00751AA1F108072C44B74218D01CB13146C2
:107DFC002046FFF752F9301DFDF754F8083E083CB9
:107E0C00F2E70CD0B5420AD01CB129462046FFF748
:107E1C0044F9281DFDF746F808350834F2E7F8BD9B
:107E2C0070B50E1E054611DDF000FCF70FFE044682
:107E3C0058B1D5E9001201EBC202FFF7C7FF286861
:107E4C00FCF70CFE2C60AE60012070BD0024F6E740
:107E5C002DE9F0410023C0E9003383600D464968E9
:107E6C009942044613DDFFF7DBFF80B1D5E90063CF
:107E7C00276806EBC308B04507D01FB1314638461A
:107E8C00FFF70BF908360837F5E76B686360204697
:107E9C00BDE8F08137B50D46044601A8FEF722FC7B
:107EAC00296820460C31FFF7D3FF01A8FEF728FC08
:107EBC00204603B030BD38B50B689B7A05460C469E
:107ECC0033B90846FEF7A2FB10B9236801229A7257
:107EDC0028462146FFF7DEFF284638BD73B5044619
:107EEC0045686846FFF7D9F8D4E90113994210DACE
:107EFC002368626803EBC50503EBC202294605F152
:107F0C000800FFF763FF8DB96368013363600126D6
:107F1C0006E001312046FFF783FF06460028E7D133
:107F2C0001A8FCF7BFFF304602B070BD6946284679
:107F3C00FFF7B3F8E8E700002DE9F04FDFF8B89051
:107F4C00DFF8B8A093B00546884600272B68BB42E3
:107F5C004ED903A8FEF7A0FE1C266A68039C7E433C
:107F6C0032440DF1140C131DE34614321868596891
:107F7C00E646AEE8030008339342F446F6D118689F
:107F8C00CEF8000059460AA8FEF7B6FC0DF1280CF5
:107F9C00BCE80F000FC4DCF8003023606B68039A58
:107FAC00334403A91B8B93826B6833445B8BD38262
:107FBC00D8F8000000F10C040AA8FFF76EF8204670
:107FCC000AA9FFF78BFF04460BA8FCF76BFF54B90B
:107FDC002023CDE90A34CDF8009023460AAA514655
:107FEC003220FCF77FFC04A8FCF75CFF0137ADE7FF
:107FFC0013B0BDE8F08F00BFE9960B00EB950B00BA
:10800C008842F8B504460D46164614D9904213D250
:10801C00A2F10806751AA1F108072C44B74218D032
:10802C001CB131462046FFF72AF8301DFCF73AFF09
:10803C00083E083CF2E70CD0B5420AD01CB12946E8
:10804C002046FFF71CF8281DFCF72CFF08350834D8
:10805C00F2E7F8BD70B50E1E054611DDF000FCF719
:10806C00F5FC044658B1D5E9001201EBC202FFF74A
:10807C00C7FF2868FCF7F2FC2C60AE60012070BDD5
:10808C000024F6E72DE9F0410023C0E900338360BA
:10809C000D4649689942044613DDFFF7DBFF80B1BA
:1080AC00D5E90063276806EBC308B04507D01FB1BC
:1080BC0031463846FEF7E3FF08360837F5E76B68BC
:1080CC0063602046BDE8F08137B50D46044601A833
:1080DC00FEF708FB296820461831FFF7D3FF01A8EB
:1080EC00FEF70EFB204603B030BD73B50446456861
:1080FC006846FEF7C4FFD4E90113994210DA2368ED
:10810C00626803EBC50503EBC202294605F10800C2
:10811C00FFF776FF8DB9636801336360012606E0D3
:10812C0001312046FFF796FF06460028E7D101A84B
:10813C00FCF7B8FE304602B070BD69462846FEF723
:10814C009EFFE8E7F0B585B0054601A80C4617463A
:10815C00FEF7C8FA0023C5E90033AB602368D3E906
:10816C00064604EBC606B44211D038682146FEF729
:10817C0019FD50B1214602A8FEF781FF02A928463D
:10818C00FFF7B3FF03A8FCF78DFE0834EBE701A85B
:10819C00FEF7B6FA284605B0F0BD00002DE9F04315
:1081AC000B689B7A91B006460F46904633B9C0E9EE
:1081BC0000338360304611B0BDE8F08311680D7E4A
:1081CC00002D58D120232A4603A8CDE90835FEF707
:1081DC005DFC039B01932B4B2B49009308AA2B4668
:1081EC000120FCF77FFB03A800F004FC1C23ADF876
:1081FC002230D8F800309A8AADF83820DB8AADF8F6
:10820C003A303B68214A1888009508A9FCF708FB0E
:10821C00002830DB3B68D3E9064304EBC309083480
:10822C00A4F10803994522D054F8083CDB89002BB3
:10823C00F5D0102200210DEB0200039500F072FE28
:10824C0054F8083CD9893B6803AA18880095132375
:10825C00FCF7F0FA0028E2D010AB184403A900F8A0
:10826C00345C54F8080C3C3000F065FCD7E7D8F8C7
:10827C00003001221A76424639463046FFF762FF3B
:10828C0098E700BF0E970B00EB950B0041840B0099
:10829C00F0B50B689B7A85B006460D462BB901A844
:1082AC00FFF709FE01A8FEF713FF2B68D3E903477C
:1082BC0004EBC707BC4209D02246294601A8FFF7A8
:1082CC006DFF01A8FEF716FF0834F3E73046294688
:1082DC00FFF7FAFE304605B0F0BD00002DE9F04383
:1082EC00054693B0086807920F46496898460AAC51
:1082FC00414B049303C405AB4FF0000983E8030022
:10830C00CDE90899FEF794FD3C4B0893FEF790FDE0
:10831C002968036809934A4604A8FCF795FA0AAE43
:10832C00044638B12B684FF6FF721A80204613B002
:10833C00BDE8F08339462846FEF7FEFC03A8FEF79D
:10834C00D1F9FEF775FD0768294618373046FEF758
:10835C00AEFE31463846FFF7DEF907460BA8FCF7B0
:10836C00A1FD4FF020091FBB3246254B254E264957
:10837C00009332202346CDE90A94FCF7B3FA306817
:10838C00FCF708FA2B688DF80C40214618881F4C16
:10839C00FCF732FA3068FCF7F5F901238DF80C3054
:1083AC002B684FF6FF721A8003A8FEF7A9F9BDE7F8
:1083BC0003A8FEF7A5F9164B009313492346324642
:1083CC000120CDE90A94FCF78DFAB8F1000FADD07D
:1083DC0029463046FFF75CFFDDE90A5305EBC3077E
:1083EC00BD4205D028460121FEF71CFC0835F7E7F5
:1083FC003046FEF77FFE99E703001800D9770B0093
:10840C0040970B0020E70320EB950B00FCFEFFFFD1
:10841C005C970B0013B50446CDE90032FEF758FC0F
:10842C00009B019900222046FFF758FF204602B01E
:10843C0010BD00002DE9F04F202395B00026CDE9AA
:10844C000C36664B009305460F4633466449DFF8FD
:10845C009491DFF88C81DFF890A10CAA0120FCF735
:10846C0041FA2B68B34240F2B58003A8FEF7C0FB7B
:10847C0005A8FEF711FC4FF02A0B6B68039A0BFB57
:10848C0006FB5B44D98B1181198C5181598C9181DC
:10849C00988CD081D88C10821B8D5382D7E90332F3
:1084AC0003EBC2029A427DD01868C48A8C4277D3FF
:1084BC00848A8C4274D85968059006A8FEF7ECF8AB
:1084CC00DDF814C0DDF80CE0BCE80F000EF1280458
:1084DC000FC4DCF8003023602B89AEF802306B68D7
:1084EC00039C5B445B7E13F0020F6ED16B685B44A4
:1084FC005B7E580742BF237943F0040323716B68FA
:10850C005B445B7E190742BF237943F00803237158
:10851C006B685B445B7EDA0642BF237943F0100341
:10852C0023716B685B4407AA5B7E9B0642BF237971
:10853C0043F0200323716B689B440BF104039646B4
:10854C000BF1140B186859689446ACE80300083317
:10855C005B456246F6D11868CCF8000071460CA851
:10856C00FEF7CAF90DF1300CBCE80F0014340FC43F
:10857C00DCF80030236003A90CA8FEF780FD0CA9E1
:10858C0007F11800FFF7B1FD04460DA8FCF78AFCB3
:10859C009CB92023CDE90C34CDF800A0234607E08C
:1085AC0008337FE720240023CDE90C43CDF800905D
:1085BC000CAA41463220FCF795F906A8FCF772FC90
:1085CC0004A8FCF76FFC01364BE7237943F0020358
:1085DC0023718BE715B0BDE8F08F00BF79970B00C6
:1085EC00EB950B0094970B00C3970B008842F8B5E2
:1085FC0004460D46164614D9904213D2A2F1240615
:10860C00751AA1F124072C44B74218D01CB131467D
:10861C002046FEF768FF3046FEF774FC243E243CEF
:10862C00F2E70CD0B5420AD01CB129462046FEF721
:10863C005AFF2846FEF766FC24352434F2E7F8BDD1
:10864C00F8B50E1E054613DD242707FB06F0FCF7D4
:10865C00FDF9044658B1D5E9001207FB0212FFF7E9
:10866C00C5FF2868FCF7FAF92C60AE600120F8BD54
:10867C000024F6E72DE9F0439DB001AD06462846EF
:10868C000C46FEF7B2F803A8FFF708F806A8FFF7A8
:10869C0005F830697169F28913AB03C385E80300EF
:1086AC003378B1688DF8243006A8FEF76BFFB289D9
:1086BC00716803A8FEF766FF94F968307F2B13AF3F
:1086CC0003D09DF924209A425CDB94F969307F2B0E
:1086DC0003D09DF924209A4254DC04F15001384611
:1086EC00FEF7F6FD149B002B52DD139E06EBC3091F
:1086FC00B14550D030462946FEF763F8083680461F
:10870C000028F5D01398FCF7A9F9B8F1000F39D06F
:10871C0029462046FEF79FFDA0B329462046FFF7C9
:10872C00CFFA064670B304F15C013846FEF71BFE27
:10873C00149B002B12DD06A8FEF708FA804603A84E
:10874C00FEF704FADDE9133203EB42029A4225D01C
:10875C0033F8021B884501D08842F7D11398FCF7F7
:10876C007DF97EB129462046FEF732FE50B1236AD0
:10877C00B3B16369139501336361636A394604F1DC
:10878C00180098472846FEF7BDFB1DB0BDE8F083E6
:10879C004FF00108B6E74FF00008B3E70026DDE71D
:1087AC00D4F83080B8F1000F07D0636901336361EE
:1087BC002946636B04F12800E3E7D4F80CC0BCF144
:1087CC00000F25D063692269013393426361D9D8C4
:1087DC00242253432A4603CA243B0CEB03064CF8D1
:1087EC000300716006F1080003A9FEF793FE06A9C9
:1087FC0006F11400FEF78EFE9DF9243086F8203029
:10880C00D4E904329A42BDD34046FBF7EBFFB9E7FB
:10881C0095E803000DF1280888E8030003A90CA8CB
:10882C00FCF752FC06A90FA8FCF74EFC9DF824306F
:10883C008DF84830414638466668FEF754FED4E958
:10884C000113994210DA23686168242202FB063670
:10885C0006F1240002FB01323146FFF7C7FE86B950
:10886C0063680133636005E001312046FFF7E8FEE1
:10887C000028E8D13846FEF745FB4046FEF742FBA0
:10888C0080E739463046FEF72EFEE9E70248002322
:10889C000360FBF767BF00BF20E7032070474174FC
:1088AC00704708B5007CFBF73DFF20EAE07008BD7F
:1088BC0008B5007CFBF716FF20EAE07008BD08B590
:1088CC00007CFBF71FFF40EAE07008BD08B5007C98
:1088DC00FBF710FF40EAE07008BD007CFBF71ABF05
:1088EC0037B5457C04462DB1207C03B0BDE8304043
:1088FC00FBF7F0BE007C0191FBF714FF00280199F7
:10890C00F2DC284603B030BD10B514210446FBF749
:10891C00BEFB204610BD000010B54FF47A73044620
:10892C00084611460022C4E90123044B23600123AD
:10893C0020746374FBF706FF204610BD64980B008F
:10894C00007C0023FBF7F6BE0022FFF7F9BF007C8A
:10895C00FBF7B8BE054B02221A60054B054A9A601C
:10896C000020C3E90000FCF745B800BF34E7032042
:10897C0028E703200000FFFF002240681146FCF7A7
:10898C0011B8002240681146FCF71CB84068002260
:10899C00FCF710B84068002281F00101FBF7FABF28
:1089AC00002340681A461946FBF7ECBF00234068C9
:1089BC001A461946FBF7DEBF002240681146FBF74A
:1089CC00D1BF002240681146FBF7BCBF40680022B3
:1089DC000221FBF7BFBF002340681A46FBF7AABF72
:1089EC00024B03225A60024A1A60704738E7032090
:1089FC0094980B0010B504460068FCF72FF820463D
:108A0C0010BD10B50446006808B1FCF727F8002328
:108A1C00C4E90133236010BD38B504460D46006827
:108A2C000131FCF723F810B1C4E90005012038BD71
:108A3C0010B50368044623B143688B4201D301206F
:108A4C0010BD2046FFF7E8FF0028F9D0A368002BE3
:108A5C00F5D122681370F2E737B50D461146019235
:108A6C000446FFF7E5FF019A28B92046FFF7C9FF36
:108A7C00204603B030BDA2602946206800F02AFAD7
:108A8C002268A3680021D154F2E7002313B5C0E992
:108A9C00003304468360037341B10846019100F032
:108AAC00A0FA019902462046FFF7D6FF204602B0F5
:108ABC0010BD38B5054600680C4668B16A688B680D
:108ACC009A4207D3096800F084FAA368AB600023CC
:108ADC00A36038BDFBF7C2FF23682B6063686B6033
:108AEC00A368AB600023C4E90033F1E710B50023A1
:108AFC00C0E90033044683600373FFF7DAFF2046B6
:108B0C0010BD884210B5044605D00B682BB18A689D
:108B1C001946FFF7A1FF204610BDFFF772FFFAE7D9
:108B2C0010B500230446C0E9003383600373FFF7DC
:108B3C00E8FF204610BD13B5044659B10846019113
:108B4C0000F04FFA019902462046FFF785FF2046B8
:108B5C0002B010BDFFF755FFF9E770B505460E469C
:108B6C0009B9002070BD6AB1846814442146FFF72E
:108B7C005FFF0028F5D02868AB683146184400F038
:108B8C0028FAAC600120EDE707B500238DF804103E
:108B9C00012201A98DF80530FFF7DFFF03B05DF866
:108BAC0004FB02680B46096862B141B9806860B188
:108BBC0010787047986840B1097848427047104661
:108BCC0000F0FDB90029F5D10846704708B5826858
:108BDC008B689A4205D1FFF7E4FFB0FA80F04009A8
:108BEC0008BD0020FCE7704738B5044614252A461A
:108BFC00002100F097F9258040250749258128465A
:108C0C00258200F031F804496060284600F02CF809
:108C1C00E060204638BD00BFC8980B0030B50E4D43
:108C2C002978BFF35B8F11F0010487B011D128466E
:108C3C00FBF73CFA68B101A8FFF7D6FF01AA214661
:108C4C000648FFF769FE2846FBF735FA044800F0A2
:108C5C0023F9024807B030BD44E7032048E703205E
:108C6C00F38B0B00FBF70FBAFBF70FBA08B5FBF74A
:108C7C000DFF0000014900F0F9B800BFE4980B00AB
:108C8C007FB500241023CDE90234036815469E6994
:108C9C0012686B46CDE90044B0479DF8043003F0F0
:108CAC000603062B03BF009B2B600120204604B05B
:108CBC0070BD0098904214BF012006207047000040
:108CCC0010B5034B0360044600F0CDF8204610BDF0
:108CDC0024990B0010B50446FFF7F2FF204608213B
:108CEC00FBF7D5F9204610BD2DE9F0411F46DDE913
:108CFC000834DDF8188098450646154607D10799C3
:108D0C0000F0B4F818B165710020BDE8F081394667
:108D1C00304600F0ABF80028F6D00123C4F80080F0
:108D2C002571A371F0E738B515461C4600F09EF886
:108D3C0020B10823E36006232560237138BD73B589
:108D4C0005460C4601921E4600F090F850B9032ED1
:108D5C0008D82368019A5B692946204602B0BDE811
:108D6C007040184702B070BD10B5034B0360044649
:108D7C00FFF7A6FF204610BD84990B0010B50446E2
:108D8C00FFF7F2FF20460C21FBF781F9204610BDBE
:108D9C00F7B5089F974205460E4614460AD0A868B8
:108DAC0002680897156A31462246AC4603B0BDE806
:108DBC00F04060471946019300F058F8019B0028D9
:108DCC00EDD0062003B0F0BD2DE9F14F0D4619464C
:108DDC00DDE90A4BDDE90CA681461746984600F002
:108DEC0045F890B1002D3460377109DB61198A4563
:108DFC000CBF06210121B171002001B0BDE8F08F3C
:108E0C000235F9D10123B371F6E7544506D1594621
:108E1C00484600F02BF808B17771EDE7D9F8080057
:108E2C000368CDE90CA6CDE90A4BDC693A4643460A
:108E3C002946A44601B0BDE8F04F60472DE9F0414A
:108E4C0007460C4615461E46FFF76DFF48B9B86835
:108E5C0003689F692A4633462146BC46BDE8F0416B
:108E6C006047BDE8F081704700207047814208B52B
:108E7C000ED0406803782A2B0CD049680B782A2B2B
:108E8C0008BF013100F09BF8B0FA80F0400908BD32
:108E9C000120FCE70020FAE7002301461A46184699
:108EAC0000F07AB9024B1844407800F097007047F4
:108EBC00519A0B0010B501390244904201D10020A7
:108ECC0005E0037811F8014FA34201D0181B10BD27
:108EDC000130F2E70A44914200F1FF3300D17047B0
:108EEC0010B511F8014B03F8014F9142F9D110BDA7
:108EFC00884210B501EB020402D98442234607D8FC
:108F0C00431EA14208D011F8012B03F8012FF8E7FA
:108F1C00024401468A4200D110BD13F8014D02F8FB
:108F2C00014DF7E702440346934200D1704703F822
:108F3C00011BF9E738B5104B1D68AB6B0446B3B990
:108F4C001820FBF783FD0246A86320B90B4B0C4895
:108F5C004221FBF7ABFD0B490B4BC0E900130B4B4C
:108F6C0083600B23838100210120C2E90401AB6BD8
:108F7C0000221C615A6138BD1CE60320BD990B0010
:108F8C00D4990B000E33CDAB34126DE6ECDE05003C
:108F9C00C9B2034610F8012B1AB18A42F9D118460E
:108FAC007047002918BF0023F9E710B50446FFF7F6
:108FBC00EFFF18B9204600F014F8204410BD10F84B
:108FCC00012B11F8013B012A28BF9A42F7D0D01A85
:108FDC007047034611F8012B03F8012B002AF9D135
:108FEC007047034613F8012B002AFBD1181A0138DD
:108FFC00704710B57AB103460139841813F8010B88
:10900C0011F8012F904201D1A34201D1801A10BD59
:10901C000028F3D1FAE71046F9E710B501390346F9
:10902C0032B111F8014F03F8014B013A002CF7D182
:10903C001A440021934200D110BD03F8011BF9E73B
:10904C0010B5024601448A42134603D01C78013203
:10905C00002CF8D1181A10BD38B503460C4669B966
:10906C00BDE83840FFF794BF431C0546214618461F
:10907C00FFF78EFF0028F7D1284638BD0025F5E70D
:10908C00012B2DE9F04701D0242B06D9FBF706FD67
:10909C00162303600020BDE8F087DFF8E4C00D461E
:1090AC002E4615F8014B14F80C7017F00807F7D181
:1090BC002D2C32D12C780127B51C002B5BD0102B1A
:1090CC0009D1302C07D12C7804F0DF04582C4DD169
:1090DC006C781023023507F1004808F1FF384FF087
:1090EC00000CB8FBF3F9664603FB198AA4F1300EA9
:1090FC00BEF1090F16D87446A34224DDBCF1000F53
:10910C001EDBB1451CD301D1A24519DB06FB03467E
:10911C004FF0010C15F8014BE8E72B2C04BF2C7811
:10912C00B51CCAE7A4F1410EBEF1190F01D8373CAA
:10913C00E2E7A4F1610EBEF1190F04D8573CDBE74E
:10914C004FF0FF3CE6E7BCF1000F05DA2223036089
:10915C00464642B930469EE707B17642002AF9D01E
:10916C00BCF1000F00D0691E1160F3E73024002B16
:10917C00B1D10823AFE7302CA5D00A23ABE700BF51
:10918C00529A0B0013460A46014602480068FFF744
:10919C0077BF00BF1CE603202DE9F843DFF8B88049
:1091AC000646D8F800001F460D46914600F056F8CA
:1091BC00254B1C6834B9254C1C60254B13B11B681E
:1091CC00C4F8883063681F2B07DDD8F8000000F066
:1091DC0047F84FF0FF30BDE8F8834EB3D4F8880061
:1091EC0088B91C4B23B9D8F8000000F038F8F0E728
:1091FC004FF48470FBF72AFC0028F4D00023C0E95C
:10920C004033C4F88800636840F8239001229A40E8
:10921C0000EB8301D0F800311343C0F80031022E6B
:10922C00C1F8807002BFD0F804311343C0F8043188
:10923C006368D8F800005A1C0233626044F823506B
:10924C0000F00EF80020C6E7E8E703205CE70320F7
:10925C0000000000594A0B0080E60320704770475D
:10926C00704700001D400B0059400B0081400B0063
:10927C0085400B000000000043616C6C206F6E2079
:10928C0070757265207669727475616C00617070AE
:10929C00006E63700073797374656D006E65740095
:1092AC00776972696E67000A0A0A0A0A0A005B206B
:1092BC00424F4F54205D2072756E6E696E6720545C
:1092CC0045535453002D2D2D2D2D2D2D2D2D2D2D64
:1092DC002D2D2D2D2D2D2D2D2D2D2D0046453A3797
:1092EC00443A32393A44383A37443A363700000077
:1092FC000000000000000000000000000000000062
:10930C00A1400B00C9400B00000000000000000051
:10931C00D5400B0009410B008D600B00CB400B00BE
:10932C005B20424C45205D207363616E6E696E67F5
:10933C0020666F722064657669636573206475724C
:10934C00696E67202564207365636F6E64732E2EBF
:10935C002E005B20424C45205D2064657669636578
:10936C0020666F756E64202573202D206E616D65EF
:10937C00202573202D206E616D6532202573005BD6
:10938C0020424C45205D20636F6E6E65637465648E
:10939C0020746F20424C45206F70746F6465206D93
:1093AC00696E692C206D6163203D202573005B2064
:1093BC00424C45205D20646973636F6E6E65637407
:1093CC006564206F70746F6465206D696E692C2004
:1093DC006D6163203D202573005B20424C45205D70
:1093EC00206661696C656420636F6E6E6563746979
:1093FC006E672025730025640025750075253034B3
:10940C00780000000000000000000000D34E0B00AC
:10941C00DD4E0B00E74E0B00F14E0B00FB4E0B002C
:10942C00074F0B00134F0B001B4F0B00234F0B0070
:10943C002F4F0B00374F0B00414F0B004B4F0B00C6
:10944C00000000000000000097500B008D500B0036
:10945C0083500B0039500B0077500B006B500B00F6
:10946C00134F0B001B4F0B005F500B0057500B00A2
:10947C004D500B0043500B004B4F0B0000000000F5
:10948C0000000000000000000000000015510B005F
:10949C007D510B0053510B00A5630B0045510B0084
:1094AC0017510B0027510B0077510B0037510B0054
:1094BC000F510B00000000000000000031520B00A7
:1094CC0021520B0023520B0025592D256D2D25649F
:1094DC005425483A254D3A2553257A006173637417
:1094EC00696D6500626175640053657269616C0039
:1094FC0053657269616C31004A534F4E53747265F7
:10950C00616D4C6F6748616E646C6572002530311B
:10951C00307520005D20002C200028293A200020E6
:10952C005B00636F6465203D2000256900646574F1
:10953C0061696C73203D20000D0A0066006C6E00A2
:10954C00666E00636F64650064657461696C00002D
:10955C000000000000000000B5540B00DB540B00B1
:10956C0099540B00074B0B0000000000000000009A
:10957C0035590B004D590B008D600B00CB400B0087
:10958C00000000000000000061590B0075590B0031
:10959C0031620B00A1540B00000000000000000021
:1095AC00B3540B00E9540B00F15F0B00A3540B00F8
:1095BC000000000000000000B1540B00F7540B0039
:1095CC0079580B0019550B00417373657274696FF0
:1095DC006E4661696C7572652066616C73650077A7
:1095EC006972696E672E626C6500537461727420C7
:1095FC00646973636F766572696E672073657276E2
:10960C00696365732E00417373657274696F6E467E
:10961C0061696C7572652068616C5F626C655F7303
:10962C007461636B5F696E6974286E756C6C7074B1
:10963C007229203D3D2053595354454D5F4552529C
:10964C004F525F4E4F4E45005065657220646576F3
:10965C00696365206973206D697373696E67210096
:10966C004661696C656420746F20616C6C6F63611A
:10967C007465206D656D6F727921004661696C654A
:10968C006420746F20617070656E64207065657203
:10969C002043656E7472616C206465766963652E17
:1096AC0000436F6E6E656374656420627920436558
:1096BC006E7472616C206465766963652E00446912
:1096CC0073636F6E6E656374656420627920726576
:1096DC006D6F7465206465766963652E00466169FB
:1096EC006C656420746F20617070656E64206469B1
:1096FC0073636F76657265642073657276696365F2
:10970C002E00537461727420646973636F76657292
:10971C00696E6720636861726163746572697374E2
:10972C00696373206F6620736572766963653A208E
:10973C0025732E0043616E6E6F7420616464206E1D
:10974C0065772070656572206465766963652E00A7
:10975C004E6577207065726970686572616C2069FE
:10976C007320636F6E6E65637465642E004368616D
:10977C00726163746572697374696320646973637D
:10978C006F76657265642E00446973636F766572DB
:10979C00656420636861726163746572697374696E
:1097AC006327732068616E646C6520697320696E31
:1097BC0076616C69642E004661696C656420746F17
:1097CC0020617070656E6420646973636F76657276
:1097DC00656420636861726163746572697374692E
:1097EC00632E00000000000000000000B7640B00B6
:1097FC0019650B008F660B0043650B00B9640B00F9
:10980C000000000000000000B3640B0027650B0093
:10981C00B5640B0049650B00D9640B000000000017
:10982C0000000000B1640B0035650B0025710B00C6
:10983C004F650B00F9640B00000000000000FB34C6
:10984C009B5F800000800010000000000000000002
:10985C000000000000000000A9880B0015890B0017
:10986C00ED880B00A5630B00BD880B00D9880B009D
:10987C00CB880B00E7880B00AB880B00AF880B0084
:10988C000000000000000000E3890B00D9890B00E8
:10989C00CF890B00C5890B00B9890B00AD890B0072
:1098AC00134F0B001B4F0B00A1890B0099890B0068
:1098BC008F890B0085890B004B4F0B0000537431C3
:1098CC00395F53705F6D616B655F7368617265645E
:1098DC005F7461670000000024990B00C9980B00AD
:1098EC0084990B00F8980B00A8990B004E31305F4F
:1098FC005F637878616269763131375F5F636C6181
:10990C0073735F747970655F696E666F45000000F4
:10991C0000000000EC980B00CD8C0B00E18C0B00D0
:10992C00758E0B00758E0B004B8D0B008D8C0B0008
:10993C00338D0B00F58C0B00BF8C0B0084990B0046
:10994C0054990B00EC980B004E31305F5F637878C4
:10995C00616269763132305F5F73695F636C61732A
:10996C00735F747970655F696E666F450000000007
:10997C000000000048990B00758D0B00898D0B00C1
:10998C00758E0B00758E0B004B8D0B008D8C0B00A8
:10999C00498E0B00D58D0B009D8D0B0024990B006F
:1099AC00B0990B00537439747970655F696E666F8A
:1099BC00005245454E54206D616C6C6F632073757D
:1099CC0063636565646564002F6D6E742F776F72C9
:1099DC006B73706163652F776F726B737061636506
:1099EC002F4743432D31302D706970656C696E655E
:1099FC002F6A656E6B696E732D4743432D31302D85
:109A0C00706970656C696E652D34385F3230323038
:109A1C00313132345F313630363138303634312FE3
:109A2C007372632F6E65776C69622F6E65776C69E4
:109A3C00622F6C6962632F7374646C69622F72613C
:109A4C006E642E630000202020202020202020285F
:109A5C0028282828202020202020202020202020DA
:109A6C002020202020208810101010101010101012
:109A7C001010101010100404040404040404040452
:109A8C0010101010101010414141414141010101D1
:109A9C0001010101010101010101010101010101AA
:109AAC0001101010101010424242424242020202B7
:109ABC00020202020202020202020202020202027A
:109ACC000210101010200000000000000000000028
